{
  "contractName": "WRBMarketplace",
  "abi": [
    {
      "inputs": [
        {
          "internalType": "uint256",
          "name": "",
          "type": "uint256"
        }
      ],
      "name": "deployedProjects",
      "outputs": [
        {
          "internalType": "contract Project",
          "name": "",
          "type": "address"
        }
      ],
      "stateMutability": "view",
      "type": "function",
      "constant": true
    },
    {
      "inputs": [
        {
          "internalType": "uint256",
          "name": "minimum",
          "type": "uint256"
        }
      ],
      "name": "createProject",
      "outputs": [],
      "stateMutability": "nonpayable",
      "type": "function"
    },
    {
      "inputs": [],
      "name": "getDeployedProjects",
      "outputs": [
        {
          "internalType": "contract Project[]",
          "name": "",
          "type": "address[]"
        }
      ],
      "stateMutability": "view",
      "type": "function",
      "constant": true
    }
  ],
  "bytecode": "0x608060405234801561001057600080fd5b506110d1806100206000396000f3fe608060405234801561001057600080fd5b50600436106100415760003560e01c80637ac3886e14610046578063992034d7146100a55780639ec6deaf146100d3575b600080fd5b61004e61012b565b6040518080602001828103825283818151815260200191508051906020019060200280838360005b83811015610091578082015181840152602081019050610076565b505050509050019250505060405180910390f35b6100d1600480360360208110156100bb57600080fd5b81019080803590602001909291905050506101b9565b005b6100ff600480360360208110156100e957600080fd5b8101908080359060200190929190505050610276565b604051808273ffffffffffffffffffffffffffffffffffffffff16815260200191505060405180910390f35b606060008054806020026020016040519081016040528092919081815260200182805480156101af57602002820191906000526020600020905b8160009054906101000a900473ffffffffffffffffffffffffffffffffffffffff1673ffffffffffffffffffffffffffffffffffffffff1681526020019060010190808311610165575b5050505050905090565b600081336040516101c9906102b2565b808381526020018273ffffffffffffffffffffffffffffffffffffffff16815260200192505050604051809103906000f08015801561020c573d6000803e3d6000fd5b5090506000819080600181540180825580915050600190039060005260206000200160009091909190916101000a81548173ffffffffffffffffffffffffffffffffffffffff021916908373ffffffffffffffffffffffffffffffffffffffff1602179055505050565b6000818154811061028357fe5b906000526020600020016000915054906101000a900473ffffffffffffffffffffffffffffffffffffffff1681565b610ddc806102c08339019056fe608060405234801561001057600080fd5b50604051610ddc380380610ddc8339818101604052604081101561003357600080fd5b81019080805190602001909291908051906020019092919050505080600160006101000a81548173ffffffffffffffffffffffffffffffffffffffff021916908373ffffffffffffffffffffffffffffffffffffffff160217905550816002819055506000600560006101000a81548160ff0219169083151502179055505050610d1a806100c26000396000f3fe6080604052600436106100c25760003560e01c8063481c6a751161007f57806382fde0931161005957806382fde0931461037c5780638a9cfd55146103a7578063d7d1bbdb14610499578063e8b5e51f146104d4576100c2565b8063481c6a7514610226578063501883011461026757806381d12c5814610294576100c2565b806303441006146100c75780630a144391146101025780631564987d146101695780633410452a146101945780633ccfd60b146101bf5780634051ddac146101c9575b600080fd5b3480156100d357600080fd5b50610100600480360360208110156100ea57600080fd5b81019080803590602001909291905050506104de565b005b34801561010e57600080fd5b506101516004803603602081101561012557600080fd5b81019080803573ffffffffffffffffffffffffffffffffffffffff16906020019092919050505061062d565b60405180821515815260200191505060405180910390f35b34801561017557600080fd5b5061017e61064d565b6040518082815260200191505060405180910390f35b3480156101a057600080fd5b506101a9610653565b6040518082815260200191505060405180910390f35b6101c761065f565b005b3480156101d557600080fd5b506101de610711565b604051808681526020018581526020018481526020018381526020018273ffffffffffffffffffffffffffffffffffffffff1681526020019550505050505060405180910390f35b34801561023257600080fd5b5061023b61075a565b604051808273ffffffffffffffffffffffffffffffffffffffff16815260200191505060405180910390f35b34801561027357600080fd5b5061027c610780565b60405180821515815260200191505060405180910390f35b3480156102a057600080fd5b506102cd600480360360208110156102b757600080fd5b8101908080359060200190929190505050610793565b60405180806020018681526020018573ffffffffffffffffffffffffffffffffffffffff1681526020018415158152602001838152602001828103825287818151815260200191508051906020019080838360005b8381101561033d578082015181840152602081019050610322565b50505050905090810190601f16801561036a5780820380516001836020036101000a031916815260200191505b50965050505050505060405180910390f35b34801561038857600080fd5b5061039161089b565b6040518082815260200191505060405180910390f35b3480156103b357600080fd5b50610497600480360360608110156103ca57600080fd5b81019080803590602001906401000000008111156103e757600080fd5b8201836020820111156103f957600080fd5b8035906020019184600183028401116401000000008311171561041b57600080fd5b91908080601f016020809104026020016040519081016040528093929190818152602001838380828437600081840152601f19601f82011690508083019250505050505050919291929080359060200190929190803573ffffffffffffffffffffffffffffffffffffffff1690602001909291905050506108a1565b005b3480156104a557600080fd5b506104d2600480360360208110156104bc57600080fd5b8101908080359060200190929190505050610a21565b005b6104dc610b6f565b005b600160009054906101000a900473ffffffffffffffffffffffffffffffffffffffff1673ffffffffffffffffffffffffffffffffffffffff163373ffffffffffffffffffffffffffffffffffffffff161461053857600080fd5b60025447101561054757600080fd5b600080828154811061055557fe5b9060005260206000209060050201905060026004548161057157fe5b0481600301541161058157600080fd5b8060020160149054906101000a900460ff161561059d57600080fd5b8060020160009054906101000a900473ffffffffffffffffffffffffffffffffffffffff1673ffffffffffffffffffffffffffffffffffffffff166108fc82600101549081150290604051600060405180830381858888f1935050505015801561060b573d6000803e3d6000fd5b5060018160020160146101000a81548160ff0219169083151502179055505050565b60036020528060005260406000206000915054906101000a900460ff1681565b60025481565b60008080549050905090565b600160009054906101000a900473ffffffffffffffffffffffffffffffffffffffff1673ffffffffffffffffffffffffffffffffffffffff163373ffffffffffffffffffffffffffffffffffffffff16146106b957600080fd5b6002544710156106c857600080fd5b3373ffffffffffffffffffffffffffffffffffffffff166108fc479081150290604051600060405180830381858888f1935050505015801561070e573d6000803e3d6000fd5b50565b600080600080600060025447600080549050600454600160009054906101000a900473ffffffffffffffffffffffffffffffffffffffff16945094509450945094509091929394565b600160009054906101000a900473ffffffffffffffffffffffffffffffffffffffff1681565b600560009054906101000a900460ff1681565b600081815481106107a057fe5b9060005260206000209060050201600091509050806000018054600181600116156101000203166002900480601f01602080910402602001604051908101604052809291908181526020018280546001816001161561010002031660029004801561084c5780601f106108215761010080835404028352916020019161084c565b820191906000526020600020905b81548152906001019060200180831161082f57829003601f168201915b5050505050908060010154908060020160009054906101000a900473ffffffffffffffffffffffffffffffffffffffff16908060020160149054906101000a900460ff16908060030154905085565b60045481565b600160009054906101000a900473ffffffffffffffffffffffffffffffffffffffff1673ffffffffffffffffffffffffffffffffffffffff163373ffffffffffffffffffffffffffffffffffffffff16146108fb57600080fd5b60025447101561090a57600080fd5b610912610c00565b6040518060a001604052808581526020018481526020018373ffffffffffffffffffffffffffffffffffffffff168152602001600015158152602001600081525090506000819080600181540180825580915050600190039060005260206000209060050201600090919091909150600082015181600001908051906020019061099d929190610c47565b506020820151816001015560408201518160020160006101000a81548173ffffffffffffffffffffffffffffffffffffffff021916908373ffffffffffffffffffffffffffffffffffffffff16021790555060608201518160020160146101000a81548160ff02191690831515021790555060808201518160030155505050505050565b600254471015610a3057600080fd5b6000808281548110610a3e57fe5b90600052602060002090600502019050600360003373ffffffffffffffffffffffffffffffffffffffff1673ffffffffffffffffffffffffffffffffffffffff16815260200190815260200160002060009054906101000a900460ff16610aa457600080fd5b8060040160003373ffffffffffffffffffffffffffffffffffffffff1673ffffffffffffffffffffffffffffffffffffffff16815260200190815260200160002060009054906101000a900460ff1615610afd57600080fd5b60018160040160003373ffffffffffffffffffffffffffffffffffffffff1673ffffffffffffffffffffffffffffffffffffffff16815260200190815260200160002060006101000a81548160ff02191690831515021790555080600301600081548092919060010191905055505050565b6002544710610b94576001600560006101000a81548160ff0219169083151502179055505b6001600360003373ffffffffffffffffffffffffffffffffffffffff1673ffffffffffffffffffffffffffffffffffffffff16815260200190815260200160002060006101000a81548160ff021916908315150217905550600460008154809291906001019190505550565b6040518060a001604052806060815260200160008152602001600073ffffffffffffffffffffffffffffffffffffffff168152602001600015158152602001600081525090565b828054600181600116156101000203166002900490600052602060002090601f016020900481019282601f10610c8857805160ff1916838001178555610cb6565b82800160010185558215610cb6579182015b82811115610cb5578251825591602001919060010190610c9a565b5b509050610cc39190610cc7565b5090565b5b80821115610ce0576000816000905550600101610cc8565b509056fea26469706673582212202e6bf75675305f9b8751a073de83c2bc2bc5d1b659fc3b71ab51b8763f5f3c4764736f6c634300060c0033a2646970667358221220a2e51e115a417862f653b99a88f04085628b7ce42512df13ab3f03683a227ce064736f6c634300060c0033",
  "immutableReferences": {},
  "source": "// SPDX-License-Identifier: MIT\npragma solidity >=0.6.0 <0.7.0;\n\ncontract WRBMarketplace {\n    Project[] public deployedProjects;\n\n    function createProject(uint256 minimum) public {\n        Project newProject = new Project(minimum, msg.sender);\n        deployedProjects.push(newProject);\n    }\n\n    function getDeployedProjects() public view returns (Project[] memory) {\n        return deployedProjects;\n    }\n}\n\ncontract Project {\n    struct Request {\n        string description; //uses semicolon rather than , for javascript\n        uint256 value;\n        address payable recipient;\n        bool complete;\n        uint256 approvalCount;\n        mapping(address => bool) approvals;\n    } //not an instance of a variable, just a type like address uint etc.\n\n    Request[] public requests;\n    address public manager;\n    uint256 public fundsRequired;\n    mapping(address => bool) public approvers;\n    uint256 public approversCount;\n    bool public withdrawable;\n\n    modifier restricted() {\n        require(msg.sender == manager);\n        _;\n    }\n\n    modifier funded() {\n        require(address(this).balance >= fundsRequired);\n        _;\n    }\n\n    constructor(uint256 _fundsRequired, address creator) public {\n        manager = creator; //to avoid the Marketplace address from becoming manager\n        fundsRequired = _fundsRequired;\n        withdrawable = false;\n    }\n\n    function invest() public payable {\n        if (address(this).balance >= fundsRequired) {\n            withdrawable = true;\n        }\n        approvers[msg.sender] = true;\n        approversCount++;\n    }\n\n    function withdraw() public payable restricted funded {\n        msg.sender.transfer(address(this).balance);\n    }\n\n    function createRequest(\n        string memory description,\n        uint256 value,\n        address payable recipient\n    ) public restricted funded {\n        Request memory newRequest = Request({ //memory because its a new instance of Request\n            description: description,\n            value: value,\n            recipient: recipient,\n            complete: false,\n            approvalCount: 0\n        }); //Request(description, value, recipient, false) is an alternative syntax to create struct but not recommended as it follows the order of keys\n\n        requests.push(newRequest);\n    }\n\n    function approveRequest(uint256 index) public funded {\n        Request storage request = requests[index]; //storage because we wnat to manipulate the actual struct item in Request.\n\n        require(approvers[msg.sender]);\n        require(!request.approvals[msg.sender]); //require will only exit with falsy value, so flipping with ! is required.\n\n        request.approvals[msg.sender] = true;\n        request.approvalCount++;\n    }\n\n    function finalizeRequest(uint256 index) public restricted funded {\n        Request storage request = requests[index];\n\n        require(request.approvalCount > (approversCount / 2));\n        require(!request.complete);\n\n        request.recipient.transfer(request.value);\n        request.complete = true;\n    }\n\n    function getSummary()\n        public\n        view\n        returns (\n            uint256,\n            uint256,\n            uint256,\n            uint256,\n            address\n        )\n    {\n        return (\n            fundsRequired,\n            address(this).balance,\n            requests.length,\n            approversCount,\n            manager\n        );\n    }\n\n    function getRequestsCount() public view returns (uint256) {\n        return requests.length;\n    }\n}\n",
  "sourcePath": "/Users/henryking/Dapps/Consensys/finastra/water-reuse-booster/contracts/WRBMarketplace.sol",
  "compiler": {
    "name": "solc",
    "version": "0.6.12+commit.27d51765.Emscripten.clang"
  },
  "schemaVersion": "3.2.5",
  "updatedAt": "2020-12-20T17:36:52.156Z",
  "networkType": "ethereum",
  "devdoc": {
    "kind": "dev",
    "methods": {},
    "version": 1
  },
  "userdoc": {
    "kind": "user",
    "methods": {},
    "version": 1
  }
}